:020000040000FA
:04000000FEEF17F008
:102A7A00A3EC15F0F7EC15F0F28CF28E4FEC15F092
:102A8A001200C50E036E0550D96EDA6ADF5059EC92
:102A9A0015F01200D58CD59AD58ED586D76A060E32
:102AAA00D66EF294F28A1200046E000E016E035082
:102ABA00BDEC15F0010E016E0450BDEC15F01200CC
:102ACA0006500724D96EDA6ADF6A06C003F0046A80
:102ADA00C70E056E47EC16F0120006500724D96E91
:102AEA00DA6ADF6A06C003F0046AC00E056E47ECB4
:102AFA0016F012003DEC15F0D50E036E2F0E046E83
:102B0A00800E056E47EC16F0C7EC16F089EF15F04B
:102B1A00FEEF17F0000EF66E300EF76E000EF86E2E
:102B2A000900F5CF26F0256A246A236A226A216AF7
:102B3A00206A000EF86E00017FEF15F0956A945036
:102B4A00F80B946E8290000E016E020EBDEC15F029
:102B5A00000E016E380EBDEC15F0000E016E0C0E63
:102B6A00BDEC15F0000E016E010EBDEC15F0120061
:102B7A00026E01B0C3EF15F0C6EF15F08282C7EFFF
:102B8A0015F0829202C083FF82848294958E82809D
:102B9A0082928284829483BED5EF15F0D7EF15F026
:102BAA00CEEF15F08290959E12006150036E046A72
:102BBA00D89003360436D89003360436D8900336B4
:102BCA0004366238E842070B070B056E066A0350A3
:102BDA000510076E04500610086E07C001F008C001
:102BEA0002F01200939493861F0E6F166F8E800E5A
:102BFA006E18D8A403EF16F005EF16F0FCEF15F0E7
:102C0A00776AE10E706E1B0E716E030E726E0D0105
:102C1A00D46B1F0E6F166F50606A608C608A120048
:102C2A00224A232A23BE25EF16F0235007E10A0E73
:102C3A00225CD8B023EF16F025EF16F02DEF16F030
:102C4A008150C009816E81500309816E46EF16F0EA
:102C5A0023BE3BEF16F0235007E1140E225CD8B0D6
:102C6A0039EF16F03BEF16F043EF16F081503F0BA9
:102C7A00816E8150FC0B816E46EF16F0236A000EBE
:102C8A00226E1200000E016E0550BDEC15F064EFC5
:102C9A0016F0010E016E03C0F6FF04C0F7FFF86AD2
:102CAA00050EF76403D00800F55005D0F6CFE9FF0A
:102CBA00F7CFEAFFEF50BDEC15F0034A042A03C030
:102CCA00F6FF04C0F7FFF86A050EF76403D00800A0
:102CDA00F55005D0F6CFE9FFF7CFEAFFEF5000092C
:102CEA00D8A47AEF16F07CEF16F04EEF16F0120029
:102CFA0060AE82EF16F084EF16F0C2EF16F0DAEC4F
:102D0A0015F00950D96EDA6A01C0DEFF02C0DDFF94
:102D1A000B50D96EDA6A65CFDFFF660E0F6E0F0EA3
:102D2A00106E126A000E116EA9EF16F011500F24E0
:102D3A00D96E12501020DA6E0A501124E16EE26A3E
:102D4A00DFCFE7FF114A122A0B50D96EDA6ADF5039
:102D5A000C6E0D6A0C50115C1250800A0E6E0D50EA
:102D6A00800A0E58D8A0BCEF16F0BEEF16F09BEF03
:102D7A0016F0609EA490C6EF16F00B50D96EDA6A70
:102D8A00DF6A12001D0E096E150E0A6E1F0E0B6EFB
:102D9A007DEC16F01F50D8B4D5EF16F0D7EF16F029
:102DAA0017EF17F0F9EF16F0150E066E1FC007F0B1
:102DBA0072EC15F017EF17F0150E056E1FC006F02E
:102DCA0046EC15F017EF17F0150E066E1FC007F048
:102DDA0065EC15F017EF17F0150E066E1FC007F019
:102DEA0018EC17F017EF17F01DC013F01EC014F0FF
:102DFA001450000AD8B404EF17F017EF17F0135065
:102E0A00100AD8B4D9EF16F0300AD8B4E1EF16F0A8
:102E1A00100AD8B4E9EF16F0600AD8B4F1EF16F048
:102E2A0017EF17F01200CEEF17F00650D96EDA6AD4
:102E3A002650DE18D8B424EF17F026EF17F02EEF3D
:102E4A0017F0EB0E036E2F0E046ECC0E056E47ECD8
:102E5A0016F081503F0B816E8150FC0B816EE4EFBE
:102E6A0017F00650D96EDA6A2650DE18D8B440EF49
:102E7A0017F042EF17F04AEF17F0E60E036E2F0E27
:102E8A00046ECC0E056E47EC16F081503F0B816E36
:102E9A00204A212A21BE5DEF17F0215007E10A0ED0
:102EAA00205CD8B05BEF17F05DEF17F062EF17F018
:102EBA0081500309816EE4EF17F021BE70EF17F01D
:102ECA00215007E1140E205CD8B06EEF17F070EFB6
:102EDA0017F072EF17F031EF17F0216A000E206E2B
:102EEA00E4EF17F00650D96EDA6A2650DE18D8B425
:102EFA0081EF17F083EF17F08BEF17F0F00E036EE8
:102F0A002F0E046ECC0E056E47EC16F08150FC0BAA
:102F1A00816E204A212A21BE9EEF17F0215007E137
:102F2A000A0E205CD8B09CEF17F09EEF17F0A3EFC3
:102F3A0017F08150C009816EE4EF17F021BEB1EF9E
:102F4A0017F0215007E1140E205CD8B0AFEF17F04C
:102F5A00B1EF17F072EF17F081503F0B816EE4EF7B
:102F6A0017F00650D96EDA6A2650DE18D8B4C0EFC8
:102F7A0017F0C2EF17F0CAEF17F0F50E036E2F0E17
:102F8A00046ECC0E056E47EC16F015EC16F0E4EF65
:102F9A0017F00650D96EDA6ADF50000AD8B41AEF71
:102FAA0017F0010AD8B436EF17F0030AD8B477EF4E
:102FBA0017F0010AD8B4B6EF17F0E4EF17F006508D
:102FCA00D96EDA6ADF50266E120000535044204749
:102FDA00522052504D2020494E4449003C2D202079
:102FEA00004F4646200020202D3E003C2D2D3E005D
:012FFA0000D6
:052FFC008FEF15F0FF4E
:020000040020DA
:08000000FFFFFFFFFFFFFFFF00
:020000040030CA
:0E000000FF071F1FFF8285FF0FC00FE00F409C
:00000001FF
