:020000040000FA
:04000000FEEF17F008
:102A420094500F09946E120021EC15F02CEC15F045
:102A52004EEC15F01200C08EC09AC088C096C0908D
:102A6200C082C094C292C19AC198C46AC36AC28029
:102A72001200000EF66E300EF76E000EF86E0900B0
:102A8200F5CF31F000EE25F00C0EEE6AE806FDE11E
:102A9200000EF86E000160EF17F0939493861F0EFC
:102AA2006F166F8E800E6E18D8A45AEF15F05CEF79
:102AB20015F053EF15F0776AE10E706E1B0E716E12
:102AC200030E726E0D01D46B1F0E6F166F50606A8B
:102AD200120001C003F0070E0316050E046ED89013
:102AE2000336042E70EF15F003500F01426F01C040
:102AF20003F002C004F0D89004320332D8900432BA
:102B02000332D890043203320350416F1200076E31
:102B120007C003F0D8900336D8900336C250C30BD7
:102B22000310C26EC282C2B299EF15F09BEF15F08C
:102B320094EF15F0C350C4CF03F0046A03C004F04D
:102B4200036A0310056E0450066E05C001F006C04C
:102B520002F0120003500410D8B4B2EF15F0B4EF33
:102B620015F0D8EF15F0010E056EBCEF15F0D890F8
:102B720003360436052A04AEC1EF15F0C3EF15F093
:102B8200B8EF15F00350015C04500258D8A0CCEF06
:102B920015F0CEEF15F0D2EF15F00350015E0450A0
:102BA200025AD89004320332052EC3EF15F001C049
:102BB20001F002C002F012000C6A030E0B6E02EF6B
:102BC20016F00A500B24D96EDA6A08C001F009C067
:102BD20002F0046A0A0E036EABEC15F00150300FDE
:102BE200DF6E0B06D8A00C0608C001F009C002F087
:102BF200046A0A0E036EB3EC16F001C008F002C0BC
:102C020009F00CBE09EF16F007EF16F0E2EF15F02F
:102C12000A50D96EDA6A040ED926DF6A1200000E53
:102C2200096E000E0A6E000E0B6E000E0C6E01A0F5
:102C32001DEF16F01FEF16F027EF16F005500926CC
:102C420006500A2207500B2208500C22D890053653
:102C5200063607360836D890043203320232013281
:102C62000150021003100410D8A43AEF16F03CEF02
:102C720016F018EF16F009C001F00AC002F00BC0FE
:102C820003F00CC004F012000F01436B446B05C04B
:102C920001F006C002F06AEC15F008C045FF460ECE
:102CA2000C6E0F0E0D6E0F6A000E0E6E67EF16F0B1
:102CB20007500E24D96EDA6A0E500C24E16E0F50C2
:102CC2000D20E26EDFCFE7FF0E4A0F2A0850096E91
:102CD2000A6A09500E5C0F50800A0B6E0A50800A75
:102CE2000B58D8A077EF16F079EF16F059EF16F0DF
:102CF2000F0140871200010E26EC17F0026E0E0E35
:102D02000218D8A487EF16F089EF16F08DEF16F0AF
:102D1200010E2B6EB1EF16F00D0E0218D8A494EF2F
:102D220016F096EF16F09AEF16F0020E2B6EB1EF38
:102D320016F00B0E0218D8A4A1EF16F0A3EF16F0AE
:102D4200A7EF16F0030E2B6EB1EF16F0070E021866
:102D5200D8A4AEEF16F0B0EF16F0B1EF16F02B6A72
:102D62002B501200066A000E056E03500410D8B4F0
:102D7200BDEF16F0BFEF16F0E7EF16F0010E076E8B
:102D8200C7EF16F0D89003360436072A04AECCEF0C
:102D920016F0CEEF16F0C3EF16F0D89005360636D1
:102DA2000350015C04500258D8A0DAEF16F0DCEFB1
:102DB20016F0E1EF16F00350015E0450025A05804E
:102DC200D89004320332072ECEEF16F005C001F080
:102DD20006C002F01200040E88EC15F001C01CF0CF
:102DE20002C01DF01E6A1F6A1CC001F01DC002F065
:102DF2001EC003F01FC004F0700E056E170E066EA3
:102E0200000E076E000E086E10EC16F001C00DF0F9
:102E120002C00EF003C00FF004C010F0FF0E116EDE
:102E2200030E126E000E136E000E146E9FEC17F05E
:102E32000DC01CF00EC01DF00FC01EF010C01FF020
:102E42001CC01AF01DC01BF01200016E0104D8A4B0
:102E52002DEF17F02FEF17F054EF17F082500F0BF2
:102E62000F0AD8B437EF17F039EF17F046EF17F023
:102E72003150D8B43FEF17F041EF17F046EF17F09B
:102E8200316A82500F0B5FEF17F082500F0B0F0A5F
:102E9200D8A44EEF17F050EF17F05EEF17F0010EC7
:102EA200316E5EEF17F00150D8A45AEF17F05CEFC5
:102EB20017F05EEF17F042EF17F00F0E120025EC3D
:102EC20015F0ECEC16F01AC022F01BC023F022C061
:102ED20008F023C009F02C0E0A6EDDEC15F0066A2C
:102EE200300E056E2C0E076E040E086E45EC16F0C1
:102EF200020E216E450E206EAA0EE82EFED7202E5F
:102F0200FCD7212EFAD77CEC16F0246E066A500EFE
:102F1200056E240E076E010E086E45EC16F0020EC9
:102F2200216E450E206EAA0EE82EFED7202EFCD76B
:102F3200212EFAD762EF17F0FEEF17F0000E156E92
:102F4200000E166E000E176E000E186E1150121043
:102F520013101410D8B4B0EF17F0B2EF17F0E8EF77
:102F620017F0010E196EBCEF17F0D8901136123619
:102F720013361436192A14AEC1EF17F0C3EF17F047
:102F8200B6EF17F0D8901536163617361836115098
:102F92000D5C12500E5813500F5814501058D8A0F0
:102FA200D5EF17F0D7EF17F0E0EF17F011500D5EE5
:102FB20012500E5A13500F5A1450105A1580D890AE
:102FC2001432133212321132192EC3EF17F015C018
:102FD2000DF016C00EF017C00FF018C010F012005E
:102FE200003C2D202020002D3E202020004F464670
:0F2FF2002020003C2D202D3E00003AEF15F0016D
:020000040020DA
:08000000FFFFFFFFFFFFFFFF00
:020000040030CA
:0E000000FF071F1FFF8285FF0FC00FE00F409C
:00000001FF
