:020000040000FA
:04000000FEEF17F008
:100600000000010E2CEC04F0026E0F0E0218D8A4AC
:100610000CEF03F00EEF03F015EF03F03150280F4D
:10062000D96EDA6ADF5060EF03F00B0E0218D8B40F
:100630001CEF03F01EEF03F02BEF03F0070E311851
:10064000D8A425EF03F027EF03F02BEF03F0316A76
:10065000285060EF03F00E0E0218D8A432EF03F01A
:1006600034EF03F03FEF03F0060E31603AEF03F092
:100670003CEF03F03FEF03F0312A0EEF03F00D0ED5
:100680000218D8A446EF03F048EF03F053EF03F04D
:100690003150D8B44EEF03F050EF03F053EF03F0B6
:1006A00031060EEF03F00B0E0218D8A45AEF03F038
:1006B0005CEF03F00EEF03F0070E316E0EEF03F068
:1006C0001200000E156E000E166E000E176E000E54
:1006D000186E1150121013101410D8B472EF03F0EA
:1006E00074EF03F0AAEF03F0010E196E7EEF03F032
:1006F000D8901136123613361436192A14AE83EFF9
:1007000003F085EF03F078EF03F0D8901536163636
:100710001736183611500D5C12500E5813500F58E2
:1007200014501058D8A097EF03F099EF03F0A2EF00
:1007300003F011500D5E12500E5A13500F5A145000
:10074000105A1580D8901432133212321132192EE9
:1007500085EF03F015C00DF016C00EF017C00FF0B6
:1007600018C010F01200EFEC05F0F2EC03F01AC024
:1007700025F01BC026F025C008F026C009F0220E87
:100780000A6E3DEC05F0066A100E056E220E076E2D
:10079000030E086E9FEC04F0020E216E450E206ED3
:1007A000AA0EE82EFED7202EFCD7212EFAD701EC78
:1007B00003F0276E066A200E056E270E076E010EE7
:1007C000086E9FEC04F0020E216E450E206EAA0EFC
:1007D000E82EFED7202EFCD7212EFAD7B5EF03F056
:1007E000FEEF17F0040E6EEC05F001C01CF002C025
:1007F0001DF01E6A1F6A1CC001F01DC002F01EC061
:1008000003F01FC004F0630E056E000E066E000EAE
:10081000076E000E086ED6EC04F001C00DF002C0A9
:100820000EF003C00FF004C010F0FF0E116E030EA7
:10083000126E000E136E000E146E61EC03F00DC00C
:100840001CF00EC01DF00FC01EF010C01FF01CC029
:100850001AF01DC01BF01200016E0104D8A433EF82
:1008600004F035EF04F05AEF04F082500F0B0F0A3A
:10087000D8B43DEF04F03FEF04F04CEF04F03050FB
:10088000D8B445EF04F047EF04F04CEF04F0306AC1
:1008900082500F0B65EF04F082500F0B0F0AD8A4A3
:1008A00054EF04F056EF04F064EF04F0010E306EE4
:1008B00064EF04F00150D8A460EF04F062EF04F09C
:1008C00064EF04F048EF04F00F0E1200066A000E09
:1008D000056E03500410D8B470EF04F072EF04F00A
:1008E0009AEF04F0010E076E7AEF04F0D890033609
:1008F0000436072A04AE7FEF04F081EF04F076EFB0
:1009000004F0D890053606360350015C04500258B6
:10091000D8A08DEF04F08FEF04F094EF04F00350B3
:10092000015E0450025A0580D89004320332072E2B
:1009300081EF04F005C001F006C002F012000F01C3
:10094000436B446B05C001F006C002F0AFEC05F04C
:1009500008C045FF460E0C6E0F0E0D6E0F6A000E9E
:100960000E6EC1EF04F007500E24D96EDA6A0E50F5
:100970000C24E16E0F500D20E26EDFCFE7FF0E4A30
:100980000F2A0850096E0A6A09500E5C0F50800A3F
:100990000B6E0A50800A0B58D8A0D1EF04F0D3EFA9
:1009A00004F0B3EF04F00F0140871200000E096E4F
:1009B000000E0A6E000E0B6E000E0C6E01A0E3EF2F
:1009C00004F0E5EF04F0EDEF04F0055009260650C1
:1009D0000A2207500B2208500C22D8900536063602
:1009E00007360836D8900432033202320132015001
:1009F000021003100410D8A400EF05F002EF05F078
:100A0000DEEF04F009C001F00AC002F00BC003F0F1
:100A10000CC004F0120003500410D8B412EF05F01B
:100A200014EF05F038EF05F0010E056E1CEF05F030
:100A3000D89003360436052A04AE21EF05F023EFE3
:100A400005F018EF05F00350015C04500258D8A0DF
:100A50002CEF05F02EEF05F032EF05F00350015EAC
:100A60000450025AD89004320332052E23EF05F0C9
:100A700001C001F002C002F012000C6A010E0B6E00
:100A80000A500B24D96EDA6A08C001F009C002F0DE
:100A9000046A0A0E036E0BEC05F00150300FDF6E96
:100AA00008C001F009C002F0046A0A0E036E66EC89
:100AB00004F001C008F002C009F00B06D8A00C0633
:100AC0000CBE67EF05F065EF05F040EF05F00A504A
:100AD000D96EDA6A020ED926DF6A1200076E07C0E5
:100AE00003F0D8900336D8900336C250C30B0310DE
:100AF000C26EC282C2B27FEF05F081EF05F07AEFDD
:100B000005F0C350C4CF03F0046A03C004F0036AC5
:100B10000310056E0450066E05C001F006C002F019
:100B20001200939493861F0E6F166F8E800E6E18B0
:100B3000D8A49DEF05F09FEF05F096EF05F0776ADA
:100B4000E10E706E1B0E716E030E726E0D01D46B92
:100B50001F0E6F166F50606A608C608A120001C0B1
:100B600003F0070E0316050E046ED8900336042E0C
:100B7000B5EF05F003500F01426F01C003F002C052
:100B800004F0D89004320332D89004320332D89063
:100B9000043203320350416F1200EC0EF66E0B0E5E
:100BA000F76E000EF86E00EE28F010EE09F0090066
:100BB000F5CFEEFFE550E150FAE1316A0001B3EF05
:100BC00003F0C08EC09AC088C096C090C082C09406
:100BD000C292C19AC198C46AC36AC280120091ECE1
:100BE00005F0E1EC05F0FBEC05F012004E3132337C
:050BF000343552430101
:080BF60094500F09946E1200E7
:042FFC00CDEF05F020
:020000040020DA
:08000000FFFFFFFFFFFFFFFF00
:020000040030CA
:0E000000FF071F1FFF8285FF0FC00FE00F409C
:00000001FF
